:020000040800F2
:10000000FC4F0020210800083901000831010008D8
:100010003301000835010008370100080000000026
:10002000000000000000000000000000390100088E
:1000300039010008000000003901000839010008FA
:1000400039010008390100083901000800000000EA
:100050003901000839010008390100083901000898
:100060003901000839010008390100083901000888
:1000700000000000390100083901000800000000FC
:1000800039010008390100083901000800000000AA
:1000900000000000000000003901000839010008DC
:1000A0003901000839010008390100083901000848
:1000B000390100080000000039010008390100087A
:1000C0003901000839010008390100083901000828
:1000D00000000000E90800083901000839010008A3
:1000E000390100080000000039010008390100084A
:1000F00039010008390100083901000839010008F8
:1001000039010008390100083901000839010008E7
:10011000000000000000000039010008390100085B
:100120003901000839010008390100080000000009
:10013000FEE7FEE7FEE7FEE7FEE7054A4FF0FF3386
:10014000136053609360034B034A1A60704700BF0B
:1001500080E100E008ED00E0000000082DE9F84330
:100160001946054610461C46164609F01BF8074678
:1001700017493A46284601F05FF9002F30462146DC
:100180004FF000024FF00003B8BF7F4208F0E2FFDB
:1001900008B104F1004400220E4B3046214608F01D
:1001A00067FD80464FF47A707843894608F0FAFC80
:1001B00002460B464046494608F0A6FB08F0F2FF0F
:1001C0000635024604492846BDE8F84301F034B933
:1001D000A497000800408F40A997000830B5054655
:1001E00091B00846144608F0EFFC02460B466846FC
:1001F000FFF7B4FF29466A462346024801F082F819
:1002000011B030BD6398000830B53F48ADF5157D9D
:1002100000F03AFA00F03CF900F0B8F93B4B8022CC
:100220001A8000230393039B5A1C0392384A93427B
:10023000F9DD04230222202100934FF4E1306023F2
:1002400000F00EFB334800F09FFB00F0B3FB324B95
:10025000324C19683248B1FBF4F101F053F8314BDC
:1002600031481968B1FBF4F101F04CF82F4B3048DC
:100270001968B1FBF4F101F045F82E4B2E481968CE
:10028000B1FBF4F11CA5D5E9004501F03BF800F005
:1002900091FB22462B4604A8FFF760FF2B4622461F
:1002A00004A9264801F02EF800F084FB234904AA93
:1002B000CDE9004512A5D5E9004514A801F0BCF828
:1002C00014A800F061FB00F075FB2B4604A8224641
:1002D000FFF744FF194904AACDE9004514A801F02D
:1002E000ABF814A800F050FB00F064FB144801F0D8
:1002F00009F800F05FFBFEE76E861BF0F92109406C
:100300000000000000C05B40DC98000814140140AD
:100310001FA10700AE970008E008002040420F0030
:10032000CF970008DC080020E9970008D8080020D3
:1003300003980008D40800201D980008379800088A
:100340005A9800084FF0FF307047034B0C221A6098
:100350004FF0FF30704700BF2C090020024B0B22EA
:100360001A604FF0FF3070472C0900204FF4005303
:100370004B600020704701207047022881BF034B6B
:10038000092200201A6098BF012070472C09002024
:10039000024B16221A604FF0FF3070472C090020E4
:1003A000024B1F221A604FF0FF3070472C090020CB
:1003B00000207047044B0246196809B903491960C7
:1003C000186802441A607047C408002030090020F1
:1003D00020B1034B09221A604FF0FF30704700BF75
:1003E0002C0900204FF400534B60002070474FF061
:1003F000FF307047024B02221A604FF0FF30704707
:100400002C090020024B0A221A604FF0FF3070477F
:100410002C090020012870B50D46144603D002288F
:1004200023D10E461CE00E46731BA3421BDA307824
:1004300000F08EFA16F8013B0A2BF5D10D2000F0E2
:1004400087FA00F0B7FAEFE7307800F081FA16F893
:10045000013B0A2B04D10D2000F07AFA00F0AAFA31
:10046000731BA342F0DB204670BD034B09221A60C8
:100470004FF0FF3070BD00BF2C09002008B50120EF
:1004800002490422FFF7C6FFFEE700BF709800088C
:10049000374B1A68043322F4702243F8042C53F8C3
:1004A000042C42F4403243F8042C53F8042C22F07C
:1004B000704243F8042C53F8042C42F0405243F8A5
:1004C000042C1A6822F00F021A601A6842F0030224
:1004D0001A60D3F8FC2322F47002C3F8FC23D3F88B
:1004E000FC2342F44012C3F8FC23D3F80014214A41
:1004F0000A40C3F80024D3F800141F4A0A43C3F883
:100500000024D3F8FC2722F47F02C3F8FC27D3F899
:10051000FC2742F40812C3F8FC27184A136823F09A
:10052000704323F0F0031360136843F0405343F02B
:1005300030031360124B1A6822F00F221A601A68F7
:1005400042F003221A600F4A1368DBB2136013688B
:1005500043F0332343F44C1313600B4B1A6822F01F
:1005600070421A601A6842F040521A60704700BF29
:100570000008014000F0F0FF3303030000140140C5
:10058000041401400018014004180140174A18499A
:1005900030B510234FF480741648174D13600C804B
:1005A000202101802C604FF4007404801360A2F8B5
:1005B000043803F18043A2F8041803F58A330222B9
:1005C0001A604FF4806180221A6099804FF4804154
:1005D00099800421A3F80414A3F804244FF40042E2
:1005E000C3F800247822C3F8002430BD100801406D
:1005F00014080140140C0140100C0140064B1A680D
:1006000022F00F021A601A6810B942F0030201E0EA
:1006100042F004021A607047000801400729C4BF75
:1006200004300839026889000F238B4022EA030353
:100630000360026803238B40134303607047C36861
:1006400010B502F00102C4688A40144302228A40B5
:1006500023EA0203072943EA0403C360C4BF08393D
:100660000430026889000F238B4022EA03030360F1
:10067000026808238B401343036010BD034601202A
:100680000BB1033B984070472DE9F041504C07787F
:1006900000232360042F35D8DFE807F035030C175B
:1006A00024004C4B4FF480321A601A689203FCD538
:1006B000012629E0474B4FF480221A604FF4803224
:1006C0001A601A689603FCD5F2E7434A136843F4AC
:1006D000004313603F4B4FF480321A601A68950351
:1006E000FCD5E5E73C4A136843F400431360394BFB
:1006F0004FF480221A604FF480321A601A68910316
:10070000FCD5D5E7FEE700264378344D8268E95CE6
:100710004A43C17801314900B2FBF1F230490FB9C7
:1007200003B152080A6009682E4A914206D92E4A3E
:1007300091422E4A94BF312732271760477990F8AB
:1007400004E090F806C0FA0242EA0E2242EA0C12D5
:10075000DFF87C802260A3B1C2789B0443EA424266
:100760008378D8F8006042EA03433343C8F8003086
:10077000184B1A6842F080721A601A689201FCD510
:100780000226236823F0030333432360B600236863
:1007900003F00C03B342FAD105EB4C052C8A144A42
:1007A000B1FBF4F41368704643F07C031360114B03
:1007B0001C60FFF763FFB4FBF0F00F4B1860384686
:1007C000FFF75CFFB4FBF0F00C4B1860BDE8F08164
:1007D000041002400010024004000140E8980008A4
:1007E000D408002000366E01006CDC0200200240BC
:1007F00018100240E0080020DC080020D808002083
:10080000054A136843F080731360044A136843F089
:1008100001031360704700BFFCED00E0001000E032
:1008200008B50A4A0A4B0B498B4204D212F8011F41
:1008300003F8011BF7E7084B084A934203D2002252
:1008400003F8012BF8E7FFF7DFFCFEE7079B000842
:1008500000000020C4080020C40800203009002047
:1008600070B505461A481E4604681A4B24F0F00479
:100870000460046844F0B0040460186840F48040E8
:10088000186008461146144A00F0DEF8F8B9304600
:10089000BDF81010114A00F054F9044610B10234AA
:1008A000A0B270BD0E48294600F0CCF90C4829468C
:1008B00000F0F7F820460B4A1368A2F5487243F49B
:1008C0008043C2F82033136843F02003136070BDE7
:1008D0000408014018100240E4080020E808002045
:1008E0000038014024E400E038B5144B1B6843B1E4
:1008F000134B14491A68096812681170186800F0DF
:1009000000F9114C2368BBB1104B1B68A3B10C4D0F
:10091000686883685A1C82601A780A4B1A60C26938
:100920001388013B9BB2138033B900F07CF86B68ED
:10093000DB691B8803B9236038BD00BF1400274260
:10094000E4080020043801409C0127421C00274293
:1009500010B5044600F03CF80128FBD0094B19689B
:100960000A68501C086014701A68938C51681268E9
:100970000B449A4203D300F01DF8012010BD002063
:1009800010BD00BFE808002010B50446084B1968E8
:100990008A691378002BFCD18B8C4A6820461A4454
:1009A00000F020F8044610B100F004F8EEE710BDA6
:1009B000E808002008B5044B186800F009F910B9E0
:1009C000024B01221A6008BDE80800209C01274262
:1009D000034B1B689B691888003018BF01207047C3
:1009E000E808002018B40C6810F8013B2BB104F89B
:1009F000013B9442F8D314F0000F18BF00200C60A4
:100A000018BC70474268838C134482694360023289
:100A100082614269934221BF03694360036A836133
:100A2000436803607047C268838C1344C269C36023
:100A30000232C2614269934221BF0369C360036A03
:100A4000C361C36883607047F8B50D461646074614
:100A500018B321B3242000F05DF9044608B9012041
:100A6000F8BD306005FB07F6304600F053F9E06052
:100A70000028F4D06060A0602060304420612784AA
:100A80006584680000F046F9E0610028E7D00023A3
:100A90006061A06103801846F8BD0220F8BD032004
:100AA000F8BD10B5044600F0D9F8E36843F40053EC
:100AB00043F02403E36010BD416902460B886BB12B
:100AC00040680231138C5161116903448B425360B9
:100AD00005D3D3685360D369536170471846704794
:100AE0008369826802338361038C134402698360E3
:100AF000934221BFC3698361C368836083680360D5
:100B0000704730B504680346621C026021780D29E5
:100B100081680AD18069551A0580188C01448A427F
:100B20003CBF00226270184606E0048C0C44A242CE
:100B300006D38369521A1A80BDE83040FFF7D0BF50
:100B400030BDF8B50D461646074600282DD00129C0
:100B50002DD9282000F0DEF8044608B90120F8BDA0
:100B6000306005FB07F60121304600F09BF820615C
:100B70000028F3D06060E0602060A06030446061D5
:100B8000A784E584680000F0C5F820620028E5D05D
:100B9000A061E0610022002320F81230013291B2FE
:100BA000A942F8D3A0611846F8BD0220F8BD032081
:100BB000F8BD10B5044600F051F8E36843F4005363
:100BC00043F00803E360636943F08003636110BD91
:100BD00008B5416803685B1A9BB22BB18269138028
:100BE000FFF710FF002008BD012008BDF8B50D4635
:100BF0001646074610B319B3282000F08BF80446B8
:100C000008B90120F8BD306005FB07F6304600F05A
:100C100081F820610028F4D06060E0602060A0606E
:100C200030446061A784E584680000F073F82062B6
:100C30000028E6D0A061E0610020F8BD0220F8BDE8
:100C40000320F8BD10B5044600F008F8E36843F44B
:100C5000005343F00803E36010BD00000E4B30B5B5
:100C600098420CBF0D4B0E4B1A68192353438A0050
:100C7000B3FBF2F26423B2FBF3F52D012C0903FB65
:100C8000142212013232B2FBF3F303F00F032B43B1
:100C90009BB2836030BD00BF00380140D8080020FF
:100CA000DC080020024B0A460146186800F002B832
:100CB0003004002010B502FB01F100F03BF80446BF
:100CC00068B150F8042C22F00302043A242A18D800
:100CD000132A06D8034600221A605A609A602046FA
:100CE00010BD00231B2A036043600FD9242A8360B0
:100CF000C36005BF0361436100F1100300F11803F5
:100D0000E9E7002100F09CFA204610BD00F108033D
:100D1000E1E700BF024B0146186800F00BB800BFC6
:100D200030040020024B0146186804F003BB00BFEA
:100D3000300400202DE9F04F01F10B05162D83B092
:100D4000064627D935F0070500F1B680A94200F222
:100D5000B38000F0C3FAB5F5FC7F22D2BC4FE8089F
:100D600007EBC003DC689C4200F0BC816368E1686B
:100D700023F0030323445A68A56842F00102E960A6
:100D800030468D605A6000F0ABFA0834204603B05C
:100D9000BDE8F08F102900F28F8000F09FFA102537
:100DA000DCE7680A00F08F80042800F24781A80978
:100DB00038304100A64F07EB8101CC68A14206D133
:100DC0000CE0002A80F28280E468A14206D06368C9
:100DD00023F003035A1B0F2AF3DD013801309C492D
:100DE0003C6901F1080E744500F07181636823F0DD
:100DF00003035A1B0F2A00F35781002AC1F814E09D
:100E0000C1F810E066DAB3F5007F80F02D81DB08D1
:100E100001EBC3084FEAA30C4A68012303FA0CF361
:100E2000D8F808C01343C4F808C0C4F80C804B605D
:100E3000C8F80840CCF80C408210012494409C4231
:100E400055D8234206D120F003006400234200F16C
:100E50000400FAD007EBC008C4468146DCF80C3029
:100E60009C4507D135E1002980F24581DB689C452E
:100E700000F02F815A6822F00302511B0F29F2DD86
:100E80001C46DA6854F808CF45F0010941F0010822
:100E90001D44C3F804903046CCF80C20C2F808C0BA
:100EA0007D613D61C5F80CE0C5F808E0C5F8048037
:100EB000695000F015FA69E7002420460C233360DE
:100EC00003B0BDE8F08F7E213F2073E723445A68CA
:100ED000E16851E723445A68304642F001025A6003
:100EE000083400F0FDF9204603B0BDE8F08FBC687F
:100EF000636823F00308454504D8C5EB08030F2BAE
:100F000000F38C80534BDFF85CA11A68DAF80030EC
:100F10002A44013304EB080B00F0518102F58052A2
:100F20000F3222F47F6222F00F0211463046019206
:100F300000F04EFAB0F1FF3F8146019A00F048817F
:100F4000834500F2EF80444BCB451968114419608A
:100F500000F04381DAF80000DFF808E101301BBF40
:100F6000CBEB090B5944CEF80090196019F007013A
:100F700000F00881C1F10800C1F5805181440831B9
:100F80004A44C2F30B02C2EB010A514630460193B8
:100F900000F01EFA431C019B00F02D81C9EB0002FA
:100FA000524442F001021968BC425144C7F808900B
:100FB0001960C9F80420DFF8A0A016D0B8F10F0F0F
:100FC00040F2EF806268A8F10C0323F0070302F0FF
:100FD0000102E0184FF0050E1A430F2B6260C0F8B3
:100FE00004E0C0F808E000F20A811C4BBC681A68F3
:100FF000914288BF19601A4B1A689142626888BF93
:10100000196022F003029542A2EB050301D80F2BD1
:1010100004DC304600F064F90024B7E645F0010234
:1010200043F00103254462603046BD6008346B60C4
:1010300000F056F9204603B0BDE8F08F142869D9B6
:10104000542800F29880280B6E304100B2E600BFB1
:1010500034040020F4080020F8080020F0080020E4
:10106000EC080020400800205A0A042A55D9142A06
:1010700000F2A7805B324FEA420C07EB8C0CDCF8E5
:101080000810DFF8B88161457FD04A6822F003027A
:10109000934202D289688C45F7D1CA687B68E260C6
:1010A000A1609460CC60C7E645F0010742F00103FF
:1010B0002544676030464D610D61C5F80CE0C5F808
:1010C00008E06B60AA50083400F00AF95EE64B684D
:1010D000B2E609F1010919F0030F0CF1080C7FF4D5
:1010E000BDAE2CE004F108036469A34208BF0230DE
:1010F0003FF475AE3AE61C461A445168DB6854F872
:10110000085F41F0010151603046EB609D6000F0E6
:10111000E7F83BE65B3041004CE69A0938324FEA8B
:10112000420CAAE7BC42454B3FF40DAF9C68626895
:1011300022F0030267E7D8F8008098457CD110F0D0
:10114000030FA8F1080300F1FF30F4D17B6823EA14
:1011500004037B6064009C423FF6C9AE002C3FF460
:10116000C6AE234248467FF475AE6400234200F1C8
:101170000400FAD06EE6B0F5AA7F18D8E80B7730F5
:10118000410017E64FF48051FAE6D8F80430921087
:101190004FF0010C0CFA02F21343C8F804300A466F
:1011A0007DE70123C9F804304C4600222BE740F2CA
:1011B000545398421CD8A80C7C304100FAE51032F8
:1011C000B3E6542A23D81A0B6E324FEA420C54E786
:1011D000BC68626822F0030215E7CBF30B0000281D
:1011E0007FF4B8AE4244BB6842F001025A60FCE6AC
:1011F000FC217E20DEE501224FF0000AD3E604F157
:101200000801304604F096F8DAF80010EDE6B2F581
:10121000AA7F04D8DA0B77324FEA420C2DE740F26E
:1012200054518A4204D89A0C7C324FEA420C24E78B
:101230004FF0FC0C7E2220E77B688BE73404002013
:1012400070B4840746D0541E002A41D0CDB2034664
:1012500002E0621EE4B3144603F8015B9A07F8D17A
:10126000032C2ED9CDB245EA05250F2C45EA0545BC
:1012700019D9264603F11002103E0F2E42F8105CD9
:1012800042F80C5C42F8085C42F8045C02F110027F
:10129000F2D8A4F1100222F00F0204F00F04103271
:1012A000032C13440DD91E462246043A032A46F85D
:1012B000045BFAD8221F22F003020432134404F024
:1012C00003042CB1C9B21C4403F8011BA342FBD197
:1012D00070BC704714460346C2E700BF704700BFAA
:1012E000704700BF0EB410B583B005AC54F8042BA2
:1012F00081682346019401F03FFB03B0BDE8104034
:1013000003B070470FB410B5074B82B004AC54F86B
:10131000042B186823468168019401F02DFB02B06C
:10132000BDE8104004B070473004002038B50C46CA
:101330000968054609B1FFF7F9FF28462146BDE8CF
:10134000384003F0F7BF00BF204B1B6898423CD0E9
:10135000C36C70B505468BB10026995939B10C683C
:10136000284603F0E7FF2146002CF8D1EB6C043649
:10137000802EF2D11946284603F0DCFF296C11B10A
:10138000284603F0D7FFD5F8481151B105F5A676E8
:10139000B14206D00C68284603F0CCFFA642214695
:1013A000F8D1696D11B1284603F0C4FFAB6B03B9E6
:1013B00070BDEB6B28469847D5F8E0120029F7D0AE
:1013C0002846BDE87040FFF7B1BF704730040020E9
:1013D00038B5074C0023054608462360FEF7EAFFB0
:1013E000431C00D038BD2368002BFBD02B6038BDD8
:1013F0002C0900200CB4F0B50E464FF6FF7E9DB0D0
:1014000022AC54F8042B6FF0004523464FF40277CA
:1014100002A9029606960194ADF816E0ADF8147094
:101420000495079500F02EF8029B00221A701DB05B
:10143000BDE8F04002B070470EB4F0B506464FF676
:10144000FF7E9CB021AC54F8042B0D4923466FF06D
:10145000004508684FF4027702A9029606960194A7
:10146000ADF816E0ADF814700495079500F00AF891
:10147000029B00221A701CB0BDE8F04003B0704718
:10148000300400202DE9F04FC1B089460A920E9336
:10149000089004F0A5F803681846179304F09AFF23
:1014A000B9F80C3018901C0604D5D9F81030002B70
:1014B00001F0C28030AF3C464E4600231393169392
:1014C00019930B93259324932397149315930A9DB3
:1014D0002B78002B00F0A980252B02D1A5E0252B2D
:1014E00003D015F8013F002BF9D10A9BEB1A73B119
:1014F000249A259901320A981944072A84E8090098
:101500002591249272DC08340B9A1A440B922B78A2
:10151000002B00F0E28700231A46691C6D788DF8D5
:101520006F300C9307934FF0FF3A4B1CA5F120014D
:10153000582900F2EA83DFE811F06D02E803E803BE
:10154000D102E803E803E803E803E803E803BC0288
:101550000D02E803F4011102E803D8027B027B02CA
:101560007B027B027B027B027B027B027B02E80325
:10157000E803E803E803E803E803E803E803E80313
:10158000E8038A02DF02E803DF02E803E803E80376
:10159000E803CB03E803E8032F03E803E803E803C9
:1015A000E803E8034D03E803E8036703E803E803FF
:1015B000E803E803E803E803E803E803E803E803D3
:1015C00082032B02DF02DF02DF02CA022B02E803E2
:1015D000E803B202E803D203FB0119037402E80333
:1015E000A303E8037A00E803E803470208983146BA
:1015F00023AA079304F01CFF50B93C46079B83E7DE
:101600000898314623AA04F013FF002800F08581D2
:10161000B146B9F80C3013F0400F0B9B18BF4FF0D8
:10162000FF33184641B0BDE8F08F0A9D6FE70A937B
:10163000079B980640F1D7820E9B03F1070929F01A
:10164000070303F10802D3E900890E920123002267
:101650009446CDF844A08DF86F20BAF1000F03DB5B
:10166000079A22F08002079258EA090240F06F833D
:10167000BAF1000F00F07484012B00F07283022B8A
:1016800000F0C28439464FEAD80242EA49724FEA72
:10169000D90008F0070381469046303358EA090222
:1016A00001F8013DEFD1079A1091D20700F17F8533
:1016B0007B1A0D930D9A53469245B8BF1346099372
:1016C00000231293BCF1000F02D0099B0133099350
:1016D000079B13F002030F9302D0099B0233099377
:1016E000079B13F0840940F02F830C9B099AC2EBEF
:1016F0000308B8F1000F40F32783B8F1100F2599C4
:10170000249ADFF870A529DD53464FF0100BC2462E
:10171000A8461D4606E0AAF1100ABAF1100F04F11E
:10172000080417DD01321031072A2591249284E83C
:101730002008F0DD0898314623AA04F079FE00283D
:101740007FF466AFAAF1100ABAF1100F3C46259952
:10175000249AE7DC2B464546D0469A46013208EBF0
:10176000010B072ACDF894B02492C4F800A0C4F865
:10177000048000F3DE829DF86FC00834BCF1000FD6
:101780000FD0249B0BF1010B01330DF16F010122EE
:10179000072BCDF894B0249384E8060000F3FD8372
:1017A00008340F9B73B1249B0BF1020B01331CA96E
:1017B0000222072BCDF894B0249384E8060000F3AE
:1017C000F9830834B9F1800F00F03483119B0D9A2E
:1017D000C2EB030ABAF1000F3CDDBAF1100F249AF4
:1017E000DFF894942BDD49465B46A9464FF010087C
:1017F000DDF820B00D4606E0AAF1100ABAF1100F8C
:1018000004F1080417DD01321033072A25932492CE
:1018100084E82001F0DD5846314623AA04F008FE92
:1018200000287FF4F5AEAAF1100ABAF1100F3C4679
:10183000259B249AE7DC9B462B464D469946013270
:10184000D344072ACDF894B0249284E8000600F32C
:1018500098830834079BD90500F18F82249B0D994A
:101860000133109A8B44072BCDF894B0226061604D
:10187000249300F3B8830834079B5A0741D50C9B87
:10188000099A9D1A002D3CDD102D249BDFF8E4A35E
:1018900023DD4FF010085A46DDF8209004E0103D9B
:1018A000102D04F1080417DD01331032072B2592A7
:1018B0002493C4F800A0C4F80480F0DD4846314603
:1018C00023AA04F0B5FD00287FF4A2AE103D102D30
:1018D0003C46259A249BE7DC93460133AB44072B17
:1018E000CDF894B02493C4F800A0656009DD089891
:1018F000314623AA04F09CFD00287FF489AEDDF870
:1019000094B00B9B099A0C998A42ACBF9B185B1848
:101910000B93BBF1000F7FF473AE002324933C467E
:10192000D5E51946079840F0040007901D78FCE5BE
:101930000A93079B13F0200300F038810E9B03F1FC
:10194000070929F0070303F10802D3E900890E9281
:1019500000237CE61D7819462B22E6E51D78591CEC
:101960002A2D00F0E587A5F1300009280B464FF03D
:10197000000A3FF6DBAD13F8015B0AEB8A0A00EBC5
:101980004A0AA5F130000928F5D94AEAEA7ACDE5F4
:101990000A93079B8DF86F20980662D50E9B03F182
:1019A000070929F00709D9E9002309F10801904640
:1019B00099460E91002A73F1000364DB9DF86FC015
:1019C000CDF844A0012348E60A93A74B8DF86F2079
:1019D0001693079B9B0640F120810E9B03F107099C
:1019E00029F0070303F108020E92D3E90089079B4F
:1019F000D90740F1228158EA090300F01E81079AB5
:101A0000302342F002028DF870308DF87150079249
:101A100002231CE6002A40F0E5841D7819462022A6
:101A200083E5079941F0200107911D7819467CE56F
:101A3000A5F13000002113F8015B01EB810100EBFF
:101A40004101A5F130000928F5D90C916EE50A9302
:101A5000079B8DF86F2043F010030793079B9806B0
:101A60009CD4079BD90640F1C1840E9A13461B688B
:101A700004320E924FEAE3791A4698464B46002A02
:101A800073F100039ADA4FF02D0CD8F1000869EBDE
:101A900049098DF86FC0CDF844A00123DDE51D781C
:101AA00007996C2D00F0258541F01001079119462A
:101AB0003BE50E9D296808460C912946002801F156
:101AC0000401C0F21D850E911D7819462DE5079978
:101AD00041F0400107911D78194626E5079941F02C
:101AE000010107911D7819461FE5079941F0800112
:101AF00007911D78194618E50A93079B8DF86F200A
:101B000013F0080F0E9BD34603F1070900F037844A
:101B100029F0070303F108020E921A685B68149219
:101B200015931599149804F007FB0128159914983A
:101B300040F00B840022002307F00CFB002840F04B
:101B400039869DF86FC0079B484A23F080030793AE
:101B50001346DFF828E10321472DD8BF7346002044
:101B60000991119010930D911290ABE50E99079881
:101B70000A9330230A688DF870303B4B782540F08B
:101B800002000431169307900E9190464FF0000921
:101B90008DF8715002235AE50A93079B43F0100316
:101BA0000793079B13F020037FF4C8AE079A12F047
:101BB000100240F00A83079B13F0400300F00583F6
:101BC0000E9913460A460432B1F800804FF000091E
:101BD0000E923CE50A93079B43F010030793079B83
:101BE00098063FF529AD079BD90600F1F782079BC0
:101BF0005A0640F1F3820E9A4FF00009B2F80080C5
:101C0000043201230E9222E50A93194B8DF86F20BE
:101C10001693079B9B063FF5E0AE079BD80640F165
:101C2000BB830E9A13461B6804329846079B0E929C
:101C3000D9074FF000093FF5DEAE022307E50E9805
:101C40000A93026800238DF89820024601219C46E1
:101C500004328DF86F301193129326AB09910E92D6
:101C60000D91109334E500BFA098000880980008FB
:101C70008C9800082C9900081C9900087C98000892
:101C80000E9A0A9313684FF0000B10938DF86FB003
:101C900002F10409002B00F05885BAF1000F1098EA
:101CA000C0F2EA845946524603F01AFD002800F0BB
:101CB0008985109BCDF844B0C31A0D93CDF83890A8
:101CC00023EAE3730993CDF848B09DF86FC0F9E4B7
:101CD000079941F0080107911D78194625E40A93F8
:101CE000079B8DF86F209A0640F165830E9A134684
:101CF00004330E930B9B11684FEAE3791A4698461A
:101D00004B46C1E90023FFF7E2BB0A938DF86F2031
:101D1000002D00F0E283002301229C468DF86F30F5
:101D20001193129326AB09928DF898500D9210934F
:101D3000CEE40898314623AA04F07AFB00287FF409
:101D400067AC3C469DF86FC0DDF894B016E5012BFA
:101D50007FF495ACB9F1000F08BFB8F10A0F80F01D
:101D600006820DF5807B08F130080BF8418DCBEB36
:101D700007030D93CDF840B09CE4652D40F3A0809F
:101D8000149815990022002307F0DAF9002800F0D2
:101D90005481249BC14901330BF1010B0122072B14
:101DA000CDF894B0249384E8060000F33E83083411
:101DB0001D9B139A934203DB079BDA077FF55CAD0B
:101DC000249B18990133179A8B44072BCDF894B0B4
:101DD00022606160249300F31A840834139B5D1E13
:101DE000002D7FF749AD102D249BDFF8B49240F30E
:101DF000EF804FF010085A46DDF820A004E00834C8
:101E0000103D102D40F3E38001331032072B259253
:101E10002493C4F80090C4F80480F0DD50463146A5
:101E200023AA04F005FB00287FF4F2AB3C46259A78
:101E3000249BE5E70C9B099AC2EB030ABAF1000F59
:101E40007FF7C4ACBAF1100F249ADFF854922BDD5F
:101E500049465B46A9464FF01008DDF820B00D4614
:101E600006E0AAF1100ABAF1100F04F1080417DD18
:101E700001321033072A2593249284E82001F0DDF3
:101E80005846314623AA04F0D3FA00287FF4C0ABA9
:101E9000AAF1100ABAF1100F3C46259B249AE7DC00
:101EA0009B462B464D4699460132D344072ACDF82E
:101EB00094B0249284E8000600F33A82083485E462
:101EC000139B249D012B40F3FC81013510990BF1EC
:101ED00001030122072D259321602495626000F300
:101EE0000E8208341899013503EB010B179B072D5F
:101EF000CDF894B024952360616000F30C8208341F
:101F0000002314981599002207F01AF9139B002852
:101F100040F0E380109A013B013501329B44072DCC
:101F200022602495CDF894B0636000F313810834E7
:101F3000199A013593441FAB072DCDF894B0249521
:101F4000626023607FF797AC0898314623AA04F0BB
:101F50006FFA00287FF45CAB3C46DDF894B08BE46C
:101F6000002B4CD1079BD80749D50DF5807B30233A
:101F70000BF8413DCBEB07030D93CDF840B0FFF7D5
:101F800099BB0898314623AA04F052FA00287FF43E
:101F90003FAB3C46DDF894B05CE40898314623AA98
:101FA00004F046FA00287FF433AB3C46DDF894B0E9
:101FB000FFF7F7BB0898314623AA04F039FA002846
:101FC0007FF426AB3C46DDF894B0FFF7FBBB9346AD
:101FD0000133AB44072BCDF894B02493C4F80090A0
:101FE00065607FF748AC0898314623AA04F020FAD0
:101FF00000287FF40DABDDF894B03C463CE4CDF80E
:1020000034A01097FFF756BBBB4616984FEA18133B
:1020100043EA09734FEA191108F00F0289469846FE
:10202000835C0BF8013D58EA0903EFD15B46CDF81C
:1020300040B0FB1A0D93FFF73DBB1D9D002D40F3F3
:102040000082139A129913468A42A8BF0B461D4676
:102050001099002D01EB020A0CDD0A46249BAB44CB
:102060000133072BCDF894B084E82400249300F3C7
:1020700048830834129B002DA8BF5B1B002B1D4614
:1020800040F3C180102D249BDFF8149040F3C081F1
:102090005A464FF01008DDF820B008E0BC98000860
:1020A0001C9900080834103D102D40F3B081013315
:1020B0001032072B25922493C4F80090C4F80480B2
:1020C000F0DD5846314623AA04F0B2F900287FF427
:1020D0009FAA3C46259A249BE5E703F1FF38B8F117
:1020E000000F7FF725AFB8F1100FDFF8489525DD19
:1020F0005B464FF0100ADDF820B006E0A8F11008AA
:10210000B8F1100F04F1080417DD01351033072D65
:102110002593249584E80006F0DD5846314623AA2D
:1021200004F086F900287FF473AAA8F11008B8F12A
:10213000100F3C46259B249DE7DC9B460135C3449C
:10214000072DCDF894B02495C4F80090C4F804800D
:102150007FF7EDAE0898314623AA04F069F900280C
:102160007FF456AADDF894B0249D3C46E0E6BB46D9
:10217000CDF824C0404649460A22002307F03AF829
:102180003032404649460BF8012D00230A2207F061
:1021900031F88046894658EA0903EBD15B46FB1AC1
:1021A000DDF824C0CDF840B00D93FFF783BA302B93
:1021B000109B3FF43EAF013B1A461093BA1A3023EE
:1021C0000D9201F8013CFFF775BA0E994FF0000926
:1021D0000A6804310E919046FFF739BA0E9901232F
:1021E0000A6804310E9190464FF00009FFF72FBAAC
:1021F0000898314623AA04F01BF900287FF408AAA6
:102200003C46DDF894B0109A12991D9B0A44904602
:10221000139A934246DB079AD00743D4139AC8EB2C
:102220000A05D31A9D42A8BF1D46002D0CDD249A35
:10223000AB440132072ACDF894B0C4F80080656041
:10224000249200F396820834002DB4BF1D465D1B16
:10225000002D7FF711AB102D249BDFF8D8937FF76B
:10226000B7AE4FF010085A46DDF820A004E008345D
:10227000103D102D7FF7ABAE01331032072B2592A6
:102280002493C4F80090C4F80480F0DD5046314631
:1022900023AA04F0CDF800287FF4BAA93C46259A79
:1022A000249BE5E7249A1898013217998344072A5A
:1022B000CDF894B021606060249200F33982083434
:1022C000ACE7079BD9073FF500AE0135109A0BF13B
:1022D000010B0123072DCDF894B022602495636093
:1022E0007FF725AE0898314623AA04F0A1F800280C
:1022F0007FF48EA93C46DDF894B0249D18E608983A
:10230000314623AA04F094F800287FF481A93C46C2
:10231000259B249DE6E50898314623AA04F088F819
:1023200000287FF475A93C46DDF894B0249DE7E5CC
:102330000898314623AA04F07BF800287FF468A9A6
:102340003C46DDF894B0FFF741BA03F0F5FE0028F3
:1023500040F0DD80B44AB54B8646472DD8BF1A46BB
:1023600011900798032120F0800009910790CDF883
:1023700048E010920D919DF86FC0FFF7A3B929F0C6
:102380000709D9F800301493D9F80430159309F1EE
:1023900008030E93FFF7C5BB079B0E9A13F0400F7F
:1023A00013463FF440AC0433B2F800804FF000090C
:1023B0000E93FFF71CBB079BDB060BD4079B5D0648
:1023C00008D50E9A136804320E92BDF82C201A809C
:1023D000FFF77DB80E9A136804320E920B9A1A60BA
:1023E000FFF775B819461D78FFF79FB8079B0E9A3F
:1023F00013F0400F13463FF43AABB2F900800433B8
:102400004FEAE8790E9342464B46FFF7D3BA93461C
:102410000133AB44072BCDF894B02493C4F800905B
:1024200065603FF7E5AE0834EDE60898314623AA2B
:1024300003F0FEFF00287FF4EBA83C46DDF894B0E3
:10244000B6E4249B7A4901330BF1010B0122072BDF
:10245000CDF894B0249384E8060000F3FD8008349E
:102460002DB9139B1BB9079BDB077FF505AA249B9E
:1024700018980133179A0BEB0001072B2591226066
:102480006060249300F3F48104F108026D42002D92
:1024900040F30781102DDFF89C9140F33E8110241A
:1024A000DDF8208004E00832103D102D40F3358126
:1024B00001331031072B25912493C2F8009054600A
:1024C000F1DD4046314623AA03F0B2FF00287FF435
:1024D0009FA83A462599249BE6E7259BB146002B09
:1024E0003FF497A80898314623AA03F0A1FFFFF70D
:1024F00090B841F0200107915D78591CFFF715B89D
:102500000C980E9140420C901946FFF70BBA25F03B
:102510002003BAF1FF3F0D9300F0AB80472B05D1AC
:10252000BAF1000F14BFD3464FF0010B079B43F4E1
:1025300080731193159BB3F1000A149B0993B7BFE5
:102540005346002303F1004A2D23662D0F9300F01C
:10255000B980462D00F0B6800D9B0220452B14BF9C
:10256000D9460BF101091DA98DE8010202911EA8AF
:1025700021A90390099A53460491089801F064FD3B
:10258000672D109002D0472D40F0AC80079BDB07F1
:1025900040F19681109B03EB0908099851460022EF
:1025A000002306F0CDFD002840F00A81219B9845CC
:1025B00006D930215A1C21921970219B9845F9D8CF
:1025C000109A9B1A13930D9B472B1D9B00F0EB80D9
:1025D000652D40F30581662D129300F06481139BF5
:1025E000129A934200F35181079BD90700F1888129
:1025F00022EAE2730D920F9A002A40F0C9800993F3
:10260000119B9DF86FC007931192FFF75BB8089874
:10261000314623AA03F00CFF00287EF4F9AF3C46B4
:10262000DDF894B0FFF7DABB8898000884980008BA
:10263000BC9800081C99000808984021FEF77AFB16
:10264000C9F80000C9F81000002800F08681402376
:10265000C9F81430FEF72EBF0898314623AA03F0BC
:10266000E7FE00287EF4D4AF3C461D9DDDF894B013
:10267000F6E64FF0060B59E7CDF844B003F0AAFE9A
:10268000CDF838900D900346FFF71ABB08983146F5
:1026900023AA03F0CDFE00287EF4BAAF3A4625996E
:1026A000249B139C013301EB040B1099072BCDF8ED
:1026B00094B02493116054603FF795AC02F1080484
:1026C000FFF7DAB803201DA98DE8010802911EA8C2
:1026D00021A90390099A53460491089801F0B4FC8B
:1026E000D9461090109B03EB09080D9B462B7FF4F5
:1026F00054AF109B1B78302B00F0E4801D9B984456
:102700004BE70898314623AA03F092FE00287EF496
:102710007FAF3C46DDF894B0ACE401332944072B8D
:1027200025912493C2F800905560AFDC0832B8E7D9
:102730000898314623AA03F07BFE00287EF468AF98
:102740003C461D9BDDF894B068E55346062B28BF38
:1027500006230D9323EAE373DDF840C00993844B0D
:10276000CDF83890CDF844C0CDF848C01093FEF7AE
:10277000A9BF0898314623AA03F05AFE00287EF428
:1027800047AF1D9B139ADDF894B0D31A3C465BE526
:102790000993119B4FF02D0C079300238DF86FC008
:1027A0001193FEF792BFDA1C19DB9B4517DB1293DE
:1027B000672514E72D239C468DF86F30FFF7C3B9CA
:1027C0004346FDE62AEAEA731190CDF8389012905C
:1027D0009DF86FC00993CDF834A0FEF773BF023D9A
:1027E000013B002B1D93BABF5B422D222B22092BEC
:1027F0008DF87C508DF87D207ADD0DF18B0001463F
:102800005C4A82FB032EDA17C2EBAE0E0EEB8E0291
:10281000A3EB420273463032092B01F8012DEFDCA5
:102820000A4630335FFA83FE02F801ED904240F22F
:102830009B800DF17E020B4601E013F801EB834211
:1028400002F801EBF9D123AB5B1A0DF17E021344C0
:102850001FAA9B1A139A1993012A13440D935EDD44
:102860000D9B002201330D93129223EAE373C2E61B
:102870000898314623AA03F0DBFD00287EF4C8AE99
:102880003A461D9D2599249B00E6129B002BD8BF3C
:10289000C3F10208139BC8BF4FF0010843440D93D6
:1028A00023EAE373A7E6002B30DDBBF1000F17D15D
:1028B000079BDB0714D4129A22EAE2730D929AE680
:1028C000219B7DE6099851460022002306F038FC42
:1028D00000287FF413AFC9F101031D9398445CE60F
:1028E000129B0BF1010843440D9323EAE37382E644
:1028F000303330228DF87F308DF87E2020ABA7E773
:10290000129B01330D9323EAE37374E6BBF1000FCE
:102910001DD1079BD8071AD401230D936BE6079BA3
:1029200013F001039CD112930D9B23EAE37362E63B
:102930000E9D2846D5F800A00430BAF1000F5D784E
:102940000E90BEF6F2AD4FF0FF3AFEF7EEBD0BF182
:1029500002030D9323EAE3734DE6089A0C231360F8
:102960004FF0FF30FEF75EBE0DF17E0370E700BF53
:10297000B4980008676666662DE9F04FBFB01C4644
:1029800089460892074602F02BFE03680C9418460D
:10299000159303F01FFD16901FB1BB6B002B00F0C9
:1029A000F480B9F80C2093B29D040AD4D9F86410CD
:1029B00042F4005321F40051A9F80C30C9F8641016
:1029C0009BB2180740F1AB80D9F81020002A00F024
:1029D000A68003F01A030A2B00F0AD8000231A46EC
:1029E0000DF1B80C6446B8461193149317930993EC
:1029F00023932293CDF884C012921392089D2B78D2
:102A0000002B00F0C680252B02D1C2E0252B03D07D
:102A100015F8013F002BF9D1089BEE1A7EB1229BDD
:102A2000239A013308993244072B84E84200239209
:102A3000229300F393800834099B334409932B7845
:102A4000002B00F0938000234FF0FF3A1A465646C1
:102A5000691C6D788DF867300A9306934B1CA5F1BD
:102A60002001582900F2C083DFE811F05602BE03AE
:102A7000BE039902BE03BE03BE03BE03BE03BE0374
:102A8000A0026402BE03F201F002BE036E027502F0
:102A9000750275027502750275027502750275027E
:102AA000BE03BE03BE03BE03BE03BE03BE03BE031E
:102AB000BE03BE0366032703BE032703BE03BE0394
:102AC000BE03BE035F03BE03BE030A03BE03BE0311
:102AD000BE03BE03BE03A803BE03BE037F03BE0343
:102AE000BE03BE03BE03BE03BE03BE03BE03BE03DE
:102AF000BE039403AE02270327032703CC02AE02D2
:102B0000BE03BE03D302BE03DD02F90184025D02EF
:102B1000BE030B02BE039500BE03BE03300238465F
:102B2000494601F097F9A0B9B9F80C3003F01A033F
:102B30000A2B7FF453AFB9F90E30002BFFF64EAFDE
:102B400038464946089A234601F046F93FB0BDE8A9
:102B5000F08F4FF0FF303FB0BDE8F08F4046494660
:102B600021AA04F077FA40B92EAC65E7239B23B184
:102B70004046494621AA04F06DFAB9F80C305A06CD
:102B8000E7D409983FB0BDE8F08F384602F062FB09
:102B900007E7089D53E70893069BB2469E0640F15F
:102BA00017830C9F073727F0070303F10802D3E9C7
:102BB00000670C92012300229446CDF83CA08DF8CA
:102BC0006720BAF1000F03DB069A22F0800206921A
:102BD00056EA070240F02A83BAF1000F00F0288479
:102BE000012B00F02B83022B00F075842EA9F20834
:102BF00042EA4772F80806F00703074616463033E4
:102C000056EA070201F8013DF1D1069A0E91D0076C
:102C100000F113852EAB5B1A0B930B9A534692452A
:102C2000B8BF1346079300231093BCF1000F02D0E6
:102C3000079B01330793069B13F002030D9302D009
:102C4000079B02330793069B13F0840640F0EB8248
:102C50000A9B079AC2EB030ABAF1000F40F3E38222
:102C6000BAF1100F2399229AB44FC8BF4FF0100B3E
:102C700007DC1EE0AAF1100ABAF1100F04F10804F3
:102C800017DD01321031072A2391229284E880084F
:102C9000F0DD4046494621AA04F0DCF900287FF423
:102CA0006CAFAAF1100ABAF1100F2EAC2399229A38
:102CB000E7DC01320AEB010B072ACDF88CB0229237
:102CC00084E8800400F3A4829DF867C00834BCF156
:102CD000000F0FD0229B0BF1010B01330DF16701A7
:102CE0000122072BCDF88CB0229384E8060000F374
:102CF000BD8308340D9B73B1229B0BF1020B013392
:102D00001AA90222072BCDF88CB0229384E8060082
:102D100000F3B8830834802E00F0FB820F9B0B9ADF
:102D2000C2EB030ABAF1000F32DDBAF1100F229A9A
:102D3000834F22DD10265B4606E0AAF1100ABAF1A5
:102D4000100F04F1080417DD01321033072A239312
:102D5000229227606660F0DD4046494621AA04F0D1
:102D600079F900287FF409AFAAF1100ABAF1100F1F
:102D70002EAC239B229AE7DC9B460132D344072AE0
:102D8000CDF88CB0229284E8800400F36383083489
:102D9000069BDB0500F16682229B0B9901330E9A9C
:102DA0008B44072BCDF88CB022606160229300F336
:102DB00080830834069B59073AD50A9B079A9D1AC7
:102DC000002D35DD102D229B5C4F1EDD10265A464E
:102DD00004E0103D102D04F1080415DD013310321C
:102DE000072B2392229327606660F2DD4046494616
:102DF00021AA04F02FF900287FF4BFAE103D102D5A
:102E00002EAC239A229BE9DC93460133AB44072B7B
:102E1000CDF88CB022932760656009DD40464946B5
:102E200021AA04F017F900287FF4A7AEDDF88CB0D2
:102E3000099B079A0A998A42ACBF9B185B180993B1
:102E4000BBF1000F40F0EA82002322932EACD5E5BF
:102E50001946069840F0040006901D78FEE5089398
:102E6000069BB24613F0200300F015810C9F073734
:102E700027F0070303F10802D3E900670C9200234F
:102E800099E60C9A089313684FF0000B0E938DF897
:102E900067B0171D002B00F07E86002E0E98C0F242
:102EA00030865946324602F01BFC002800F0AF86FF
:102EB0000E9BCDF83CB0C31A0B930C9723EAE37337
:102EC0000793CDF840B09DF867C0AEE608931D4B60
:102ED000B2461493069B8DF86720990640F14F8106
:102EE0000C9F073727F0070303F108020C92D3E980
:102EF0000067069BDB0740F1078356EA070300F0F3
:102F00000383069A302342F002028DF868308DF870
:102F10006950069202234EE6002A40F031851D7862
:102F2000194620229AE5069941F0200106911D7864
:102F3000194693E51D7819462B228FE54C99000818
:102F40003C990008A0980008069941F0800106917C
:102F50001D78194682E5A5F13000002113F8015BC8
:102F600001EB810100EB4101A5F130000928F5D901
:102F70000A9174E50C9A0699089330238DF868300D
:102F8000B44BB2467825166841F00201043214931E
:102F900006910C9200278DF8695002230BE60699E2
:102FA00041F0010106911D78194657E50C9D2968ED
:102FB00008460A912946002801F10401C0F26F85F4
:102FC0000C911D78194649E50893069BB24699066F
:102FD0008DF8672040F1BC800C9F073727F007076A
:102FE000D7E9002307F1080116461F460C91002A75
:102FF00073F10003C0F2E6839DF867C0CDF83CA0F2
:103000000123DEE5069941F0400106911D7819463D
:1030100024E51D7806996C2D00F03A8541F01001E9
:10302000069119461AE50893069B8DF867209A06C3
:1030300040F175840C9A134604330C93099B116874
:10304000DF171A463B46C1E90023D7E41D78591C17
:103050002A2D00F09E86A5F1300009280B464FF07E
:1030600000063FF6FCAC13F8015B06EB860600EBAE
:103070004606A5F130000928F5D946EAE676EEE4E1
:103080000893069BB24643F010030693069B13F089
:1030900020037FF4EBAE069A12F0100240F081821A
:1030A000069B13F0400300F07C820C9913460A46FD
:1030B00004320E8800270C927DE50893069B0C9F36
:1030C0001B07B2468DF86720B34607F1070740F1AA
:1030D0000B8427F0070303F108020C921A685B685F
:1030E000129213931399129803F026F8012813995A
:1030F000129840F075830022002306F02BF8002878
:1031000040F06B859DF867C0534A544B069E472D8F
:10311000D8BF1A460321002026F0800607910F90A1
:1031200006960E920B9110907FE5069941F00801EA
:1031300006911D78194691E40893069BB24643F028
:1031400010030693069B8DF8672099063FF544AF60
:10315000069BDA0640F1D3830C9A13461E680433AB
:10316000F7170C9332463B4641E708933C4BB24677
:103170001493069B8DF8672099063FF5B1AE069B28
:10318000DA0640F1F1830C9A0027134604331668DF
:103190000C93AEE60C980893026800238DF89020FB
:1031A000024601219C4604328DF867300F9310933C
:1031B00024AB07910C920B910E933CE50893069B70
:1031C000B24643F010030693069B9E063FF5E9AC1A
:1031D000069BD80640F1BA830C9A134604321E6847
:1031E000002701230C92E6E408938DF86720002D58
:1031F0003FF4BCAC002301229C468DF867300F934E
:10320000109324AB07928DF890500B920E9312E519
:103210004046494621AA03F01DFF00287FF4ADACCB
:103220009DF867C02EACDDF88CB050E5012B7FF423
:10323000DAAC002F08BF0A2E80F0E4810DF1F80B04
:1032400030360BF8416D2EABCBEB03030B93CDF86F
:1032500038B0E2E4A0980008809800087C98000844
:103260008C980008652D40F38A80129813990022EB
:10327000002305F065FF002800F04981229BBA4930
:1032800001330BF1010B0122072BCDF88CB02293F7
:1032900084E8060000F3858308341B9B119A93424F
:1032A00003DB069BDF077FF585AD229B1699013373
:1032B000159A8B44072BCDF88CB022606160229365
:1032C00000F3F4830834119B5D1E002D7FF772AD6F
:1032D000102D229BA54F40F3E28010265A4604E0B1
:1032E0000834103D102D40F3D98001331032072BE4
:1032F0002392229327606660F2DD4046494621AA68
:1033000003F0A8FE00287FF438AC2EAC239A229B51
:10331000E7E70A9B079A9E1A002E7FF7FFAC102E54
:10332000229A924F1FDD4FF0100A5B4604E0103ED8
:10333000102E04F1080415DD01321033072A2393FF
:10334000229284E88004F2DD4046494621AA03F037
:1033500081FE00287FF411AC103E102E2EAC239B72
:10336000229AE9DC9B460132B344072ACDF88CB09F
:1033700022922760666000F318820834CEE4119B25
:10338000229D012B0BF1010605F1010540F3C781D8
:103390000E9A0123072D239622602295636000F385
:1033A000D7810834169A0135159B1644072D2396AC
:1033B00022952360626000F3D781083400231298BD
:1033C0001399002205F0BCFE119B002840F0F1800B
:1033D0000E9A013B013501321E44072D22602295D1
:1033E0002396636000F3D5810834179A013506EB04
:1033F000020B1DAB072DCDF88CB0229562602360C7
:103400007FF7D7AC4046494621AA03F023FE0028A7
:103410007FF4B3AB2EACDDF88CB0CBE4404649462C
:1034200021AA03F017FE00283FF40EADFFF7A5BB5D
:10343000002B4AD1069BDA0747D50DF1F80B302354
:103440000BF8413D2EABCBEB03030B93CDF838B01B
:10345000FFF7E3BB4046494621AA03F0FBFD0028E5
:103460007FF48BAB2EACDDF88CB091E4404649463E
:1034700021AA03F0EFFD00287FF47FAB2EACDDF82E
:103480008CB037E44046494621AA03F0E3FD00280A
:103490007FF473AB2EACDDF88CB03CE49346013383
:1034A000AB44072BCDF88CB02293276065607FF783
:1034B00080AC4046494621AA03F0CCFD00287FF4A9
:1034C0005CABDDF88CB02EAC74E42EABCDF82CA048
:1034D0000E93FFF7A2BB14980DF1B80B330943EA22
:1034E0000773390906F00F020F461E46835C0BF87E
:1034F000013D56EA0703F1D15A462EAB9B1ACDF88F
:1035000038B00B93FFF789BB0223FFF754BB1B9D19
:10351000002D40F35282119A109913468A42A8BF97
:103520000B461D460E99002D01EB020A0CDD0A46E2
:10353000229BAB440133072BCDF88CB084E82400E8
:10354000229300F305830834109B002DA8BF5B1B5A
:10355000002B1D4640F38B80102D229B034F40F320
:10356000148210265A4608E0BC9800083C990008CE
:103570000834103D102D40F3078201331032072B21
:103580002392229327606660F2DD4046494621AAD5
:1035900003F060FD00287FF4F0AA2EAC239A229B52
:1035A000E7E70C9900270A4604320E680C92FFF7F1
:1035B00002BB03F1FF3ABAF1000F7FF716AFBAF181
:1035C000100F864FC8BF4FF0100B07DCD8E008344F
:1035D000AAF1100ABAF1100F40F3D280013510366B
:1035E000072D2396229584E88008F0DD4046494661
:1035F00021AA03F02FFD00287FF4BFAA2EAC239E42
:10360000229DE5E70DF1B80BCDF81CC030463946D8
:103610000A22002305F0EEFD3032304639460BF821
:10362000012D00230A2205F0E5FD06460F4656EA65
:103630000703EBD1DDF81CC05EE7302B00F04282BF
:103640000E9B2EA8013B1A460E93821A30230B9232
:1036500001F8013CFFF7E1BA4046494621AA03F0D0
:10366000F9FC00287FF489AADDF88CB02EAC0E9A04
:1036700010991B9B0A441646119A934240DB069A06
:10368000D5073DD4119AC6EB0A05D31A9D42A8BFAF
:103690001D46002D2F460BDD229AAB440132072A2E
:1036A000CDF88CB084E8C000229200F38782083401
:1036B000002FB4BF1D46DD1B002D7FF77BAB102D07
:1036C000229B464F7FF7EBAE10265A4604E00834A3
:1036D000103D102D7FF7E2AE01331032072B2392FD
:1036E000229327606660F2DD4046494621AA03F036
:1036F000B1FC00287FF441AA2EAC239A229BE7E775
:10370000229A1698013215998344072ACDF88CB075
:1037100021606060229200F331820834B2E7069B98
:10372000D8073FF535AE0E9A0123072D2396226068
:10373000229563607FF758AE4046494621AA03F0C0
:1037400089FC00287FF419AA2EAC239E229D4CE60A
:103750004046494621AA03F07DFC00287FF40DAACB
:103760002EAC239E229D1DE64046494621AA03F029
:1037700071FC00287FF401AA2EAC239E229D1DE639
:1037800001355644072D2396229584E880047FF75F
:103790002BAE4046494621AA03F05CFC00287FF48A
:1037A000ECA9239E229D2EAC1FE64046494621AA45
:1037B00003F050FC00287FF4E0A92EACDDF88CB0BB
:1037C000FFF7ACBA4FF02D0C764267EB47078DF848
:1037D00067C0CDF83CA00123FFF7F3B93C9900087E
:1037E00002F0AAFC002800F02D8125F02003BAF198
:1037F000FF3F0B9300F07882472B05D1BAF1000F01
:1038000014BFD3464FF0010B069B43F480730F9314
:10381000139BB3F1000A129B0793B7BF53460023D3
:1038200003F1004A2D23662D0D9300F07381462D80
:1038300000F070810B9B0220452B14BF5F460BF1FB
:1038400001071BA98DE8810002911CA81FA9039004
:10385000079A53460491404600F0F6FB672D0E9000
:1038600002D0472D40F06681069BDB0740F159826C
:103870000E9BDE19079851460022002305F060FCDC
:10388000002840F0C2811F9B9E4206D930215A1C5D
:103890001F9219701F9B9E42F9D80E9A9B1A119382
:1038A0000B9B472B1B9B00F0A981652D40F3BB812F
:1038B000662D109300F02882119B109A934200F31A
:1038C0001682069BD90700F13C8222EAE2730B9232
:1038D0000D9A002A40F0878107930F9B9DF867C0DF
:1038E00006930F92FFF7A1B927F007073B681293E1
:1038F0007B68139307F108030C93FFF7F3BB069B58
:103900000C9A13F0400F13463FF428ACB2F9006054
:103910000433F7170C9332463B46FFF768BB069B10
:10392000DB060BD4069B5F0608D50C9A136804329D
:103930000C92BDF824201A80FFF760B80C9A136827
:1039400004320C92099A1A60FFF758B8069B0C9A39
:1039500013F0400F13463FF441AC168804320027A1
:1039600001230C92FFF727B9069B0C9A13F0400F26
:1039700013467AD00433168800270C93FFF7B9BAA0
:1039800019461D78FFF76AB893460133AB44072BFD
:10399000CDF88CB02293276065603FF75DAE0834A8
:1039A00065E64046494621AA03F054FB00287FF40F
:1039B000E4A82EACDDF88CB06FE4229BB049013353
:1039C0000BF1010B0122072BCDF88CB0229384E878
:1039D000060050DC08342DB9119B1BB9069BDE078D
:1039E0007FF5E8A9229B1699013315980BEB01028C
:1039F000072B239284E80300229300F368810834A4
:103A00006D42002D6FDD102D9E4FC8BF102605DCC6
:103A1000AAE00834103D102D40F3A6800133103287
:103A2000072B2392229327606660F2DD40464946C9
:103A300021AA03F00FFB00287FF49FA82EAC239A45
:103A4000229BE7E7904A914B069E472DD8BF1A4626
:103A5000032126F080060F900791069610900E9293
:103A60000B919DF867C0FFF7E0B804331668002794
:103A70000C93FFF73EBA4046494621AA03F0EAFA02
:103A800000287FF47AA82EAC1B9DDDF88CB0A2E74D
:103A900041F0200106915D78591CFEF7DFBF0A98BE
:103AA0000C9140420A901946FFF7D3B94046494667
:103AB00021AA03F0CFFA00287FF45FA82EACDDF82E
:103AC0008CB000E40E9A2EAB9B1A0B93FFF7A5B8AF
:103AD0004046494621AA03F0BDFA00287FF44DA8CC
:103AE000239A229B2EAC1198013302EB000B0E9A05
:103AF000072BCDF88CB02293226060607FF759A924
:103B0000D7E4CDF83CB002F065FC0C970B9003466F
:103B1000FFF7D4B903201BA98DE8010802911CA866
:103B20001FA90390079A53460491404600F08CFA6F
:103B30005F460E900E9BDE190B9B462B7FF49AAED0
:103B40000E9B1B78302B00F0EE801B9F3E4491E6CD
:103B50004046494621AA03F07DFA00287FF40DA8CB
:103B60002EACDDF88CB0EFE401332A44072B23920E
:103B7000229327606560ABDC0834B4E740464946D1
:103B800021AA03F067FA00287EF4F7AF2EAC1B9B46
:103B9000DDF88CB076E53346062E28BF06230B935E
:103BA00023EAE373DDF838C00793394B0C97CDF85F
:103BB0003CC0CDF840C00E93FFF737B840464946A9
:103BC00021AA03F047FA00287EF4D7AF1B9B119A75
:103BD000DDF88CB0D31A2EAC6AE52D239C468DF807
:103BE0006730FFF791BA07930F9B4FF02D0C0693A8
:103BF00000238DF867C00F93FFF71AB8DF1C11DBA5
:103C00009B450FDB1093672556E6334645E626EACB
:103C1000E6730F900C9710909DF867C007930B9672
:103C2000FFF703B8023D013B002B1B93BABF5B4279
:103C30002D222B22092B8DF874508DF8752040F31E
:103C400086800DF183000146124A82FB0326DA17B3
:103C5000C2EBA60606EB8602A3EB42023032092E27
:103C6000334601F8012DEFDC0A463033DEB202F8AC
:103C7000016D904240F2A0800DF176020B460DE0FE
:103C8000BC9800083C9900088898000884980008AF
:103C9000B49800086766666613F8016B834202F801
:103CA000016BF9D121AB5B1A0DF1760213441DAA09
:103CB0009B1A119A1793012A13440B9357DD0B9B00
:103CC000002201330B93109223EAE37300E640468F
:103CD000494621AA03F0BEF900287EF44EAF2EAC6F
:103CE0001B9D239A229B8BE64FF0060B8CE5109BC5
:103CF000002BD8BFC3F10206119BC8BF0126F318E1
:103D00000B9323EAE373E3E5002B39DDBBF1000FEE
:103D100025D1069BDE0722D4109A22EAE2730B9289
:103D2000D6E51F9BB9E5079851460022002305F010
:103D300007FA00287FF409AFC7F101071B973E443B
:103D400098E5109B01330B9323EAE373C0E530330E
:103D500030228DF877308DF876201EABA7E7109BC8
:103D60000BF1010633440B9323EAE373B0E5069BA2
:103D700013F00103A3D110930B9B23EAE373A7E590
:103D8000BBF1000F12D1069BD8070FD401230B9370
:103D90009EE50C9D28462E680430002E5D780C9020
:103DA000BEF65CAE4FF0FF36FEF758BE0BF10203D5
:103DB0000B9323EAE3738BE50DF1760377E700BFFE
:103DC00030B40D46034C134601462A46206830BCE9
:103DD000FEF7D2BD300400202DE9F04588464F6E35
:103DE000ADF26C4D1997D8F81C70B1F80CE0B1F831
:103DF0000EA00797D8F824701AAC4FF480652EF007
:103E0000020E002669460094049402950595ADF8CB
:103E10000CE0ADF80EA0099706960546FEF7ACFD3E
:103E2000041E07DB2846694601F004F9B04218BFBA
:103E30004FF0FF34BDF80C305B0605D5B8F80C30F8
:103E400043F04003A8F80C3020460DF26C4DBDE85D
:103E5000F08500BF38B52F4B054618680C4610B1E9
:103E6000836B002B36D0A28993B218070CD520693A
:103E7000A8B113F001021ED0636900225B42A36166
:103E8000A260F0B1002038BDD9063AD5580724D435
:103E9000206942F00803A3819BB20028E9D103F412
:103EA0002072B2F5007FE4D02846214601F0A8FB3D
:103EB000A3892069DDE7990758BF6269A2600028DD
:103EC000E0D1A3891A06DED543F04003A3814FF069
:103ED000FF3038BD01F0BEF9C5E7216B49B104F1EF
:103EE0004003994203D0284601F024FAA289002316
:103EF0002363206922F02402002392B284E809009F
:103F0000C7E742F0400209232B604FF0FF30A28147
:103F100038BD00BF300400202DE9F04F03690F6960
:103F200083B09F4200F38B80013F01F1140600F142
:103F3000140A56F827305AF827200133B2FBF3F859
:103F4000BB00009306EB030953440193B8F1000F43
:103F50003DD000231C46B446D6461A465CF804BB46
:103F6000DEF800501FFA8BF34FEA1B4B03FB0822CD
:103F70000BFB08F303EB124392B2A41A1FFA83FB64
:103F8000AAB22244CBEB154404EB224492B242EA9B
:103F90000442E1454EF8042B4FEA24444FEA134211
:103FA000DCD2009B5AF803308BB9019C231F9A4541
:103FB0000CD254F8043C4BB9A4F1080302E01A688F
:103FC000043B1AB99A4507F1FF37F8D30761044655
:103FD00001F0A6FE00282EDB00235546194608F105
:103FE000010856F8042B2B6890B2081A120C99B2EB
:103FF000C2EB1343421803EB224392B242EA03425C
:10400000B14545F8042B4FEA2341EAD25AF827205C
:104010000AEB87037AB91A1F92450BD253F8042C86
:1040200042B9083B02E01A68043B1AB99A4507F105
:10403000FF37F8D32761404603B0BDE8F08F00207A
:1040400003B0BDE8F08F00BF2DE9F04F016C99B0CF
:104050000446CDE90223259D41B1426C01239340E2
:104060008B604A6001F024FC00232364DDE9022315
:10407000002B994636DB00232B60A54B1A4609EA34
:104080000303934217D0DDE9026700220023304684
:10409000394605F055F8804600282BD0249A012394
:1040A0001360269B002B00F0CB809A4818600138E3
:1040B00019B0BDE8F08F42F20F73249A1360029B8F
:1040C000002B00F0A6809448269B002BF0D0C378EC
:1040D000002B00F0B78000F10803269A136019B096
:1040E000BDE8F08F039A012322F000492B60CDF840
:1040F0000C90C2E717AA16AB8DE80C00204632469A
:104100003B4601F02DFF5FEA1955834640F08A8057
:10411000DDF85880179D6FF4826345449D42C0F2DC
:1041200095827E4A05F21243521B09FA02F9029A5D
:1041300022FA03F049EA000004F024FD0123013DC6
:10414000A1F1F87112930022754B04F0DDFB6AA314
:10415000D3E9002304F08CFD69A3D3E9002304F024
:10416000D5FB064628460F4604F01CFD66A3D3E99E
:10417000002304F07DFD02460B463046394604F02C
:10418000C5FB06460F4605F00DF83946059000229E
:104190003046002304F0DEFF002840F0A481059B98
:1041A000162B00F29D81DDE9022305985D4901EBA4
:1041B000C001D1E9000104F0EBFF002800F05082BB
:1041C000059B013B059300230C93C5EB0805B5F156
:1041D000010A00F19F8100230693059B002BC0F28A
:1041E00090819A440B9300230993229B092B2BD88F
:1041F000052B40F37786043B22930025229B023B4C
:10420000032B00F25586DFE813F0CF03C103B002A1
:104210006A06414B444AC9F31300002814BF1846EC
:10422000104651E7C7F3130343F07F51CDF84880A0
:104230003046A5F2FF3541F44011DDF8588082E7A1
:104240003A4835E7C31C48E70021616420462291C3
:1042500001F006FB4FF0FF33229A07930D930123E1
:104260000890239220640A93179B002BC0F2D08001
:10427000059A0E2A00F3CC802A4B03EBC203D3E944
:104280000089239B002BC0F29283DDE9026742463E
:104290004B463046394604F015FE04F083FF824653
:1042A00004F080FC42464B4604F0E2FC02460B461A
:1042B0003046394604F028FB079E089F0AF1300576
:1042C000012E3D7002460B4607F1010562D0002227
:1042D000174B04F0CDFC0022002306460F4604F0E5
:1042E0002FFF002840F08180CDF808B0DDF820A035
:1042F000DDF81CB006942AE061436F63A787D23FC4
:10430000B3C8608B288AC63FFB799F501344D33FC4
:104310000000F07FBD980008CC9800080EFCFFFF5D
:104320000000F83F60990008C0980008BC98000899
:10433000000024400022C84B04F09AFC0022002315
:1043400006460F4604F0FCFE002840F0E08342469B
:104350004B463046394604F0B5FD04F023FF0446D1
:1043600004F020FC42464B4604F082FC02460B4619
:104370003046394604F0C8FA04F1300605F8016BFE
:10438000CAEB0506B34502460B46D3D1A246DDF87B
:1043900008B0069C1046194604F0B8FA06460F46C7
:1043A0004046494632463B4604F0D4FE48B94046B2
:1043B000494632463B4604F0C3FEB0B11AF0010F45
:1043C00013D015F8018C6B1E089904E08B4200F0A5
:1043D000458413F8018DB8F1390F03F101051A4630
:1043E000F4D008F10103DBB213702046594601F006
:1043F0005FFA0022059B2A70249A01331360269BE2
:10440000002B00F04A8308981D6019B0BDE8F08FBA
:104410000A9A002A00F08480229A012A40F3098334
:10442000079B5F1E099BBB42C0F2AF83DF1B079B4C
:10443000002BC0F2A584069D079B069A20461A44CD
:10444000012106929A4401F019FB064665B1BAF1C2
:10445000000F09DDAA455346A8BF2B46069AED1A60
:10446000D21A0692C3EB0A0A099B002B1ADD0A9B9B
:10447000002B00F08383002F10DD31463A462046A2
:1044800001F0A6FB06465A463146204601F000FBE5
:1044900080465946204601F00BFAC346099BDA1BB9
:1044A00040F0A7822046012101F0E8FA0B9B8046EC
:1044B000002B39DD01461A46204601F089FB229B7C
:1044C0008046012B40F39B824FF00009D8F8103052
:1044D00008EB8303186901F083FAC0F120002DE096
:1044E00001230C9371E6059804F05CFB32463B46D1
:1044F00004F026FE00287FF452AE059B013B059395
:104500004DE6069A059BD21A5B4209930023069258
:104510000B936AE6CAF1000306934FF0000A5CE6CB
:10452000099F069D0A9E91E7229B012B40F3B882CA
:104530004FF000090B9B002BC8D10120504410F014
:104540001F0000F08180C0F12003042B40F3C184E0
:10455000C0F11C00069B0544034406938244069B5D
:10456000002B05DD59461A46204601F081FB8346A3
:10457000BAF1000F05DD41465246204601F078FBB6
:1045800080460C9B002B40F06D82079B002B40F374
:104590009B820A9B002B71D1DDF82090079F4D462E
:1045A00004E05946204601F08DF9834658464146BD
:1045B000FFF7B2FC303005F8010BC9EB0503BB4235
:1045C0004FF00A024FF00003EBDB089B079A84468A
:1045D000012AACBF9B1801331D464FF0000A594613
:1045E00001222046CDF808C001F042FB4146834637
:1045F00001F096FB0028DDF808C040F3FC8215F8B6
:10460000012C6B1E089904E08B4200F0798213F8AC
:10461000012D392A03F10105F6D001321A70414605
:10462000204601F045F9002E3FF4DFAEBAF1000F4D
:1046300005D0B24503D05146204601F039F9314644
:10464000204601F035F9D0E61C2083E7034B029A9F
:104650005B1B02FA03F06FE500002440EEFBFFFF56
:104660000C90B2E53146002320460A2201F02AF9D7
:104670000D9B0646002B40F315840793002D05DDA6
:1046800031462A46204601F0F3FA0646B9F1000FFA
:1046900040F0EE82B146089A079B1746013BD318BB
:1046A0000993029B03F001030A9341465846FFF722
:1046B00033FC31460546584601F032FB4A468246F5
:1046C0004146204601F050FBC268034605F1300C1C
:1046D000002A40F0BD8119465846CDF81CC006930B
:1046E00001F01EFB069B02901946204601F0E0F8FF
:1046F000029ADDF81CC02AB9229B1BB90A9B002B29
:1047000000F0B083BAF1000FC0F2578205D1229BAE
:104710001BB90A9B002B00F05082002A00F3BC82D8
:10472000099B07F1010A9F4287F800C0554600F037
:10473000BF8259460A220023204601F0C3F84E45A5
:104740008346314620464FF00A024FF0000300F046
:10475000798101F0B7F8494606460A22204600232F
:1047600001F0B0F8574681469FE701230A93239B47
:10477000002B40F319821F461E460D93079300211C
:10478000172F61640AD9012204235B0003F114008E
:104790008742114602F10102F7D26164204601F01E
:1047A0005FF80E2E089020643FF65EAD002D3FF4BA
:1047B0005BADDDE902230599CDE90E23002940F325
:1047C0002682BA4B01F00F020D1103EBC203E9067A
:1047D000D3E9006740F1E181DDE90E01B44B05F05A
:1047E0000F05D3E9082304F06DFBCDE902014FF07A
:1047F00003088DB130463946DFF8B492EA0705D593
:10480000D9E9002304F034FA08F101086D1009F128
:104810000809F3D106460F46DDE9020132463B4660
:1048200004F050FBCDE902010C9B43B1DDE902012C
:104830000022A04B04F08EFC002840F0B5824046D8
:1048400004F0B0F9DDE9022304F012FA9A4B0022D9
:1048500004F05CF8079B0646A1F15077002B00F0AE
:104860006881059BDDF81CC013930A9B002B00F0A8
:1048700026828E4B002003EBCC0353E902238F49A1
:10488000CDF850C004F01EFB32463B4604F03CF825
:10489000DDE90267CDE910013946304604F082FCBB
:1048A000054604F07FF902460B463046394604F0CF
:1048B0002BF8DDE9102330355FFA85F8089D0646B0
:1048C00085F800800F46013504F044FC002840F0D4
:1048D000B98232463B460020764904F015F802467C
:1048E0000B46DDE9100104F053FC002840F0B382D0
:1048F000DDF850C0BCF1010F40F33A81089BCDF8C0
:1049000050A0CDF808B003EB0C09DDE910ABA046D0
:104910000FE032463B460020664903F0F5FF524661
:104920005B4604F017FC002840F090824D4500F0F3
:104930001A81504659460022614B04F099F9002231
:104940005F4B82468B463046394604F091F90F465C
:10495000064604F027FC044604F024F902460B4600
:104960003046394603F0D0FF3034E4B205F8014B4D
:1049700052465B4606460F4604F0ECFB0028C8D0C2
:10498000139BDDF808B0444605932EE500230A93F7
:10499000239B059A13440D930133002B079340F397
:1049A0000A81079E3746EAE600230A93DFE6079B63
:1049B000002B3FF76AAC40F0668240460022414B34
:1049C000494604F055F9DDE9022304F0D7FBDDF890
:1049D0001C804646002800F08B80239B089DDB430B
:1049E00005934146204600F063FF002E7FF427AE7A
:1049F000FBE45946204601F0EBF8834652E5029B62
:104A0000002B7FF461AD039BC3F31303002B7FF4F2
:104A10008FAD039B23F000473F0D3F05002F00F0B3
:104A20001E82069B0AF1010A013306934FF0010929
:104A300080E5129A002A00F0A98103F23343099F0E
:104A4000069DFAE400F03EFF5746064681462CE6F6
:104A500001462046CDF808C000F02AFF0122DDF80B
:104A600008C04FE65846414601F05AF90028BFF603
:104A70008CAD059F5946002320460A22013F059729
:104A800000F020FF0A9B8346002B7FF4EBAD0D9BCB
:104A9000002B40F3FC8107937EE50898FFF708BBE5
:104AA000029B002B7FF444ADADE700BF6099000886
:104AB000389A00080000F03F00001C400000E03F72
:104AC0000000244000001440229B022B7FF761ADC0
:104AD000079B002B81D141460522204600F0F2FEC3
:104AE00080465846414601F01BF900287FF775AF14
:104AF000059A08993123013205920B704D1C70E71D
:104B0000059A312301320592089A137087E5DDF882
:104B100008B0069C69E4404604F044F8DDE902234D
:104B200004F0A6F80022BE4B03F0F0FE0646A1F109
:104B30005077DDE902010022BA4B03F0E5FE324670
:104B40003B46CDE9020104F023FB8046002840F0FB
:104B5000B280DDE90201324607F1004304F0FAFABF
:104B600030B1464639E74446DDF850A0DDF808B0DC
:104B7000DDE90E23CDE90223FFF776BB5946099AFA
:104B8000204601F025F883468CE4099B0B9AFB1A1A
:104B90001A4409970B92002749E4DDE90E234FF0F0
:104BA0000208CDE9022324E6012623960D960796F6
:104BB00000216164F2E51E46FAE7002A15DD594638
:104BC00001222046CDF808C001F052F84146834644
:104BD00001F0A6F80028DDF808C040F34D81BCF1D3
:104BE000390F00F009810CF1010CB24687F800C0C2
:104BF0007D1C4E4613E504D11CF0010F01D0FEE4EC
:104C0000154615F8013C6A1E302BF9D007E5059BC7
:104C10005D42002D00F0C180DDE90E01824B05F000
:104C20000F0203EBC203D3E9002304F021F82D1196
:104C3000CDE9020100F030817C4E4FF00208EB0715
:104C400005D5D6E9002304F013F808F101086D102A
:104C500006F10806F3D1CDE90201E5E5059A302316
:104C600001320592089A137031231370FFF7BDBB10
:104C70007168204600F0F4FD0546336906F10C0129
:104C80009A1C92000C3000F075FD20462946012246
:104C900000F0EEFF8146FEE4BCF1390F00F0AC807D
:104CA0000CF1010CB24687F800C07D1C4E46B6E4FC
:104CB000B2464E4693E44FF00008464618E75A497C
:104CC0000CF1FF3301EBC3013246D1E9000114932B
:104CD0003B46CDF854C003F0CBFFDDE90267CDE9D8
:104CE00010013946304604F05DFA054603F05AFFDC
:104CF00002460B463046394603F006FEDDF854C046
:104D0000089A3035BCF1010F157006460F4602F1C6
:104D1000010523D0089BCDF808A063445E469A465F
:104D2000AB460022424B03F0A3FF8946804604F0C5
:104D300039FA074603F036FF303702460B46404645
:104D4000494603F0E1FD0BF8017BD345E9D1B346B9
:104D50000F460646149BDDF808A01D440022354B83
:104D6000DDE9100103F0D2FD32463B4604F0F2F9D2
:104D7000002848D0139B059315F8018CFFF723BB3F
:104D8000069B079A9D1A0023FFF757BB169B099FA6
:104D9000C3F13603069DFFF750BBDDE90E234FF04C
:104DA0000208CDE902233FE5079B002B3FF4B3AE99
:104DB0000D9D002D7FF7DCAEDDE9020100221C4BCA
:104DC00003F056FF06460F4608F10100CDE90267E1
:104DD00003F0E8FE02460B463046394603F048FF32
:104DE0000F4B002203F092FD059B0646013B1393F7
:104DF000A1F15077AC4638E53922B2463A704E46BA
:104E00007D1CFFF7FEBBDDE910230020094903F0FC
:104E10007BFD32463B4604F0BBF970B9A8E600BF03
:104E200000001C400000144060990008389A0008F7
:104E3000000024400000E03F154615F8013C6A1EC2
:104E4000302BF9D0139B0593FFF7CFBA4346A0460A
:104E50001C46DDF808B0139B0593FFF7B4BAB946BA
:104E6000FFF768BBBCF1390FC6D0BAF1000F7FF76E
:104E7000BCAE05F1310CB8E67FF4B7AE1CF0010F03
:104E80003FF4B3AEABE64FF000084646A5E5229BE3
:104E9000022B04DC0D9BFEE54FF00208C4E40D9BE1
:104EA000079315E6229B022BF9DC0D9BFFF7E5BB70
:104EB000002565642946204600F0D2FC4FF0FF3300
:104EC00007930D9301230890239520640A93FFF71D
:104ED000CBB93FF444ABC0F13C00FFF73BBB01232F
:104EE0000A9355E50125FFF789B900BF8B892DE9A4
:104EF000F0419AB20D46110780463CD46A6843F4EB
:104F00000063002AAB8165DDAE6A002E4BD09BB2F8
:104F100003F48052002192B2D8F80040C8F8001083
:104F2000002A5BD02A6D5F0705D569682B6B521A82
:104F30000BB1EB6BD21A4046E9690023B047461C1F
:104F400056D0AB892A6923F400639BB200212A6002
:104F5000DA04AB8169603BD4296BC8F8004011B317
:104F600005F14003994202D0404600F0E3F90020E9
:104F70002863BDE8F0812E69AEB191072C680CBFA3
:104F80006B6900232E60A41BAB600AE03246234607
:104F90006F6A4046E969B8470028A4EB000406445C
:104FA00004DD002CF2DC0020BDE8F081AB894FF07D
:104FB000FF3043F04003AB81BDE8F081AB892A6943
:104FC00023F400639BB2AB81DB0469602A60C3D524
:104FD0002865C1E7EA6B002A96DCE4E70123404636
:104FE000E969B047431C024619D0AB89AE6A9AE71B
:104FF000D8F800100029E1D01D2907D0162905D0C6
:10500000AB8943F04003AB81BDE8F081AB892969EE
:1050100023F400630022AB8185E806009CE7D8F802
:105020000030002BE1D01D2B01D0162BBED1C8F8CB
:105030000040B8E710B5044682B008B1836B53B1A5
:10504000B1F90C0008B902B010BD204602B0BDE8AD
:105050001040FFF74BBF019100F0FCF80199EFE71A
:1050600020B1054B01461868FFF7E4BF034B044924
:10507000186800F05BBA00BF3004002018990008DF
:10508000355000080020704700207047014900F0AB
:105090004DBA00BF5D7D00082DE9F04F0746354849
:1050A0007D68002407F53B7204230321F863C7F8E9
:1050B000E412C7F8E822C7F8E04283B02C606C60C5
:1050C000AC606C66EC812C616C61AC61AB8121469B
:1050D00005F15C000822FCF7B3F8DFF89CB0BE686D
:1050E000DFF898A0DFF89890DFF898800123092274
:1050F000C5F820B0C5F824A0C5F82890C5F82C80C4
:10510000ED612146F381B28106F15C003460746088
:10511000B460746634617461B46108220193FCF771
:105120008FF8FD6812200222F661C6F820B0C6F89A
:1051300024A0C6F82890C6F82C802146A881EA81D0
:105140002C606C60AC606C662C616C61AC6105F1CC
:105150005C000822FCF774F8019BED61C5F820B0F3
:10516000C5F824A0C5F82890C5F82C80BB6303B00F
:10517000BDE8F08F8D50000891610008B96100080A
:10518000F16100081162000870B568234D1E03FB31
:1051900005F50E4605F17401FBF7CCFD044640B160
:1051A00000210C30666005F168022160A060FCF708
:1051B00047F8204670BD00BF204B70B51D680646FD
:1051C000AB6B13B92846FFF767FF05F538756B68B9
:1051D000AC68013B05D521E0013B5A1C04F1680491
:1051E0001CD0B4F90C20002AF6D14FF6FF7200252E
:1051F0000123E281A38165662560A5606560256164
:105200006561A561294604F15C000822FCF718F8E5
:105210002046256365636564A56470BD2B680BB18A
:105220001D46D4E730460421FFF7AEFF286008B1E1
:105230000546CCE70C23336070BD00BF1899000809
:10524000024B0349186800F071B900BF18990008B3
:105250005D7D0008836B03B17047FFF71DBF00BF82
:10526000704700BF704700BF704700BF704700BF66
:10527000024B0349186800F035B900BF3004002024
:1052800085500008024B0349186800F02BB900BF95
:105290003004002089500008F8B50C46224F06461D
:1052A000FCF71CF8BB685D6825F00305291B01F6B7
:1052B000EF7121F47F6121F00F01A1F58054B4F565
:1052C000805F07DB30460021FCF782F8BB682B4487
:1052D000984204D03046FCF703F80020F8BD304671
:1052E0006142FCF775F801300DD0104BBA681968AF
:1052F0002D1B45F001053046091B55601960FBF771
:10530000EFFF0120F8BD30460021FCF761F8BA68D4
:10531000831A0F2BDEDD064C0449246843F0010399
:10532000001B53600860D5E734040020F808002013
:105330004008002000294ED02DE9F0410C4680465F
:10534000FBF7CCFF54F8047C6249A4F1080527F070
:105350000102AB188E6858689E4220F003005AD0B4
:10536000FE0758600BD454F8087C01F1080EED1BC1
:10537000AC683A44744567D0EF68E760BC601C18BD
:105380006468E4070CD4544F9C680244BC427CD04F
:10539000D86842F00103E06084606B60AA5003E0CB
:1053A00042F001036B60AA50B2F5007F14D2D2081C
:1053B00001EBC20301244868921004FA02F29C68CF
:1053C0001043AC60EB6048609D60E5604046BDE81E
:1053D000F041FBF785BF7047530A042B47D8930968
:1053E00003F13804600001EB80008368394983428F
:1053F00043D0596821F00301914202D99B68984239
:10540000F7D1DA68EA60AB6040469560DD60BDE8E0
:10541000F041FBF765BFFF07024407D454F8084C7E
:105420002D1BEB68A8682244C36098602B4B42F0A8
:1054300001001B6868609A428D60C7D3284B4046C4
:105440001968FFF729FFC1E719184968C90709D486
:10545000D96802449B6842F00100D9608B606860A3
:10546000AA50B3E742F001036B60AA50AEE7142BD9
:1054700014D803F15B046000B5E74A68A41001206A
:10548000A04002434A601A46BCE742F001034D6166
:105490000D61EC60AC606B60AA5097E7542B04D8A8
:1054A000130B03F16E0460009DE7B3F5AA7F04D8E7
:1054B000D30B03F17704600095E740F25450834228
:1054C00004D8930C03F17C0460008CE7FC207E245C
:1054D00089E700BF340400203C0400203C08002081
:1054E000F40800202DE9F04110F538771AD08846ED
:1054F00000267D68BC68013D0ED4A389013D012BC7
:1055000006D9B4F90E30013302D02046C047064315
:105510006B1C04F16804F0D13F68002FE9D13046DC
:10552000BDE8F0813E463046BDE8F0812DE9F84304
:1055300010F538761ED0884607464FF0000975688A
:10554000B468013D10D4A389013D012B08D9B4F9F9
:105550000E30013304D038462146C04749EA0009DD
:105560006B1C04F16804EED13668002EE7D1484682
:10557000BDE8F883B1464846BDE8F883C2B110B52E
:1055800010460C49144600F047FE08B90A4810BD01
:105590002046094900F040FE0028F7D02046074980
:1055A00000F03AFE044B00280CBF1846002010BD46
:1055B00001487047D0980008789800089C98000827
:1055C000004870479C080020014B1868704700BFD6
:1055D000BC080020004870474408002000207047A5
:1055E0000048704764080020024B0A4601461868CC
:1055F000FFF7C4BF30040020004870476408002053
:105600008B899AB212F0020F3CD1F0B50C46B1F979
:105610000E1091B00029054619DB01AA02F066FCC4
:10562000002812DB029B03F47043A3F50057B7FA7E
:1056300087F7B3F5004F4FEA57172AD0A3894FF4E5
:10564000806643F40063A3810BE0A3899AB212F051
:10565000800F43F40063A3810CBF4FF480664026A3
:10566000002728463146FBF765FBA38940B31A4A59
:1056700043F08003EA63A3812060206166619FB9E3
:1056800011B0F0BD01F1430301220B600B614A61CF
:105690007047124BA26A9A42D0D1A3894FF4806618
:1056A0003343A381E664DCE72846B4F90E1002F028
:1056B000C1FD0028E4D0A38943F00103A381DFE703
:1056C0009A05DDD404F1430243F002030121A381D2
:1056D000226022616161D3E78D500008F16100080A
:1056E000830770B4C9B240D0541E002A3FD003785B
:1056F0008B4218BF431C05D11CE0ECB10278013C81
:105700008A4217D013F0030F184603F10103F4D1B6
:10571000032C14D884B103788B420BD00519431C99
:1057200002E002788A4205D0AB42184603F1010339
:10573000F7D1002070BC7047204670BC704702460D
:1057400041EA012646EA0646136810467340A3F173
:10575000013525EA030313F0803F02F10402D9D199
:10576000043C032C1046EFD8D4E71446D0E710468B
:10577000E0E700BF844641EA000313F0030349D188
:10578000403A23D30B6803604B6843608B688360A7
:10579000CB68C3600B6903614B6943618B698361AB
:1057A000CB69C3610B6A03624B6A43628B6A836293
:1057B000CB6AC3620B6B03634B6B43638B6B83637B
:1057C000CB6BC36340304031403ADBD230320BD335
:1057D0000B6803604B6843608B688360CB68C36071
:1057E00010301031103AF3D20C3205D351F8043B8B
:1057F00040F8043B043AF9D2043208D0D2071CBF67
:1058000011F8013B00F8013B01D30B88038060468F
:10581000704700BF082A13D38B07B1D010F00303E1
:10582000AED0C3F10403D21ADB071CBF11F8013B51
:1058300000F8013BA4D331F8023B20F8023B9FE77C
:10584000043AD9D3013A11F8013B00F8013BF9D2EF
:105850000B7803704B7843708B7883706046704789
:10586000C26C70B505460C4652B152F824308BB16B
:10587000196842F82410002218461A61DA6070BDD7
:1058800021220421FBF716FAE86402460028ECD135
:10589000002070BD012101FA04F6721D2846920015
:1058A000FBF708FA03460028F2D044608660E2E77E
:1058B00031B1C36C4A6853F82200086043F82210E3
:1058C000704700BFF0B50C4605460E6983B001F184
:1058D000140E0027DEF80010013788B2090C02FB15
:1058E000003302FB01F198B201EB134300EB0341DB
:1058F000BE424EF8041B4FEA1343EBDC3BB1A268F7
:10590000964207DA04EB860201365361266120468F
:1059100003B0F0BD6168284601310193FFF7A0FF95
:105920000746226904F10C01023292000C30FFF7A5
:1059300021FFEA6C6168019B52F82100206042F867
:1059400021403C46DEE700BF2DE9F843234C1F46CB
:10595000083384FB034EDB17C3EB6E0EBEF1010F61
:1059600006460C469046089D35DD012300215B006C
:105970009E4501F10101FADC3046FFF771FF01237A
:10598000B8F1090F4561036121DD04F109094D46B4
:10599000444415F8013B0146303B30460A22FFF7EC
:1059A00091FFA542F5D109EB0804083C47450CDD01
:1059B000C8EB0707274414F8013B0146303B30464B
:1059C0000A22FFF77FFFBC42F5D1BDE8F8830A3415
:1059D0004FF00908EAE70021CEE700BF398EE3382F
:1059E000030C1B04B3B90004102310F07F4F04BF55
:1059F0000002083310F0704F04BF0001043310F0B0
:105A0000404F04BF80000233002807DB420003D46C
:105A1000202070470023E8E7581C7047184670475D
:105A2000036813F0070207D0D90720D49A0720D4BF
:105A30009B0803600220704799B209B91B0C102221
:105A400013F0FF0F04BF1B0A0832190704BF1B091C
:105A50000432990704BF9B080232D90704D45B08BB
:105A600001D12020704701320360104670470020AA
:105A700070475B0803600120704700BF10B50C46FB
:105A80000121FFF7EDFE01224461026110BD00BF5C
:105A90002DE9F04F0E69156985B0AE420C4691466E
:105AA000C0F292802B4635461E46A36805EB0608D9
:105AB00061689845C8BF0131FFF7D2FE00F1140AB2
:105AC0000AEB880BDA45019005D25346002143F8D2
:105AD000041B9B45FBD809F1140909EB860304F16B
